{
  "contractName": "Addition",
  "abi": [
    {
      "constant": true,
      "inputs": [],
      "name": "sum",
      "outputs": [
        {
          "internalType": "int256",
          "name": "",
          "type": "int256"
        }
      ],
      "payable": false,
      "stateMutability": "view",
      "type": "function"
    },
    {
      "constant": true,
      "inputs": [],
      "name": "getSum",
      "outputs": [
        {
          "internalType": "int256",
          "name": "",
          "type": "int256"
        }
      ],
      "payable": false,
      "stateMutability": "view",
      "type": "function"
    },
    {
      "constant": false,
      "inputs": [
        {
          "internalType": "int256",
          "name": "x",
          "type": "int256"
        },
        {
          "internalType": "int256",
          "name": "y",
          "type": "int256"
        }
      ],
      "name": "add",
      "outputs": [],
      "payable": false,
      "stateMutability": "nonpayable",
      "type": "function"
    }
  ],
  "bytecode": "0x6080604052600560005534801561001557600080fd5b5060ff806100246000396000f3fe6080604052348015600f57600080fd5b5060043610603c5760003560e01c8063569c5f6d146041578063853255cc14605d578063a5f3c23b146079575b600080fd5b604760ae565b6040518082815260200191505060405180910390f35b606360b7565b6040518082815260200191505060405180910390f35b60ac60048036036040811015608d57600080fd5b81019080803590602001909291908035906020019092919050505060bd565b005b60008054905090565b60005481565b808201600081905550505056fea265627a7a72315820224bace37927fcf65793828017ad5d017890e255da39fa491e287846640a803a64736f6c63430005100032",
  "source": "pragma solidity >=0.4.21 <0.7.0;\n\ncontract Addition {\n  int public sum = 5;\n  \n  function getSum() public view returns(int){\n    return sum;\n  }\n  function add (int x, int y) public {\n    sum = x + y;\n  }\n}",
  "sourcePath": "/Users/ahmeddarkazanli/Desktop/Bridged/truffle/contracts/Addition.sol",
  "compiler": {
    "name": "solc",
    "version": "0.5.16+commit.9c3226ce.Emscripten.clang"
  },
  "schemaVersion": "3.0.21",
  "updatedAt": "2020-01-24T00:32:29.977Z",
  "networkType": "ethereum",
  "devdoc": {
    "methods": {}
  },
  "userdoc": {
    "methods": {}
  }
}